:0400000029EF07F0ED
:10080000002073656C6563742031206F72203200A4
:100810004C45445F4F4646004C45445F4F4E0000F8
:1008200024C028F0296A2A6A2334283601E3298063
:1008300028502D6E27C028F0296A2A6A26342836C7
:1008400001E3298028502C6E2D50D8B40BD02C50A9
:100850002D5CD8B00ED02D5000082C24286E180E18
:10086000286407D025C022F026C023F027C024F03A
:10087000B8D02C50D8B40BD02D502C5CD8B00ED0A2
:100880002C5000082D24286E180E286407D022C092
:1008900022F023C023F024C024F0A3D0060E2B6E38
:1008A00024AE02D02B8E00D027BE2B8C238EFF0EC1
:1008B0002216FF0E2316000E2416268EFF0E251676
:1008C000FF0E2616000E27162C502D5CD8B01ED019
:1008D000D8902536263627362C062D502C18D8B41D
:1008E0000FD02B062BC028F0070E2816D8B408D03E
:1008F000EFD706D0D8902432233222322D2A00D0CE
:100900002C502D18D8B424D0F5D722D02D502C5CE3
:10091000D8B01ED0D8902236233624362D062D503E
:100920002C18D8B40FD02B062BC028F0070E281691
:10093000D8B408D0EFD706D0D89027322632253247
:100940002C2A00D02C502D18D8B402D0F5D700D0C6
:100950002BAE0CD0FF0E221AFF0E231AFF0E241A04
:10096000010E2226000E2322000E24222BAC0DD0D5
:10097000FF0E251AFF0E261AFF0E271A010E252636
:10098000000E2622000E272200D0000E2B6E2250D1
:100990002526235026222450272227AE0FD0FF0ED3
:1009A000251AFF0E261AFF0E271A010E2526000E05
:1009B0002622000E2722010E2B6E00D025C001F04A
:1009C00026C002F027C003F02DC004F02BC005F0B4
:1009D000D6EC05F001C022F002C023F003C024F0E1
:1009E00000D0120003C005F0066A076A023405361B
:1009F00001E3068005500F6E0F50D8A402D039D005
:100A000063D0170E056E01C006F002C007F003C0E8
:100A100008F00528096E04D0D89008320732063253
:100A2000092EFAD706500A6E028EFF0E0116FF0E2F
:100A30000216000E031601500B6E02500C6E03508E
:100A40000D6E0E6A8E0E0F5E0FAE10D00F50800A24
:100A50008F0FD8B003D00DD037D000D0D8900E3241
:100A60000D320C320B320F3EF9D719D0170E0F642E
:100A700011D0000E016E000E026E000E036E000E0D
:100A8000046E22D007D0D8900B360C360D360E36B9
:100A90000F0600D00F50D8B402D0F5D700D00A50BE
:100AA000D8B409D00E1E0D1E0C1E0B6C000E0C22AD
:100AB0000D220E2200D00BC001F00CC002F00DC0C0
:100AC00003F00EC004F000D0120015C019F01A6A2D
:100AD0001B6A1434193601E31A801950206E205015
:100AE000D8A402D00ED061D018C019F01A6A1B6ABF
:100AF0001734193601E31A801950216E2150D8A4F9
:100B000007D0000E136E000E146E000E156E4DD041
:100B1000000E1D6E000E1E6E000E1F6E2150890FFE
:100B2000205E15C021F01850211A800E2116148E57
:100B3000FF0E1316FF0E1416000E1516178EFF0E5D
:100B40001616FF0E1716000E1816180E1C6E00D083
:100B5000D8901D361E361F361650135C1750145889
:100B600018501558D8A007D01650135E1750145AB5
:100B70001850155A1D80D8901336143615361C2E71
:100B8000E7D700D01DC001F01EC002F01FC003F067
:100B900020C004F021C005F0D6EC05F001C013F030
:100BA00002C014F003C015F000D012000450D8B4F5
:100BB00005D0015002100310D8A40ED0000E016E13
:100BC000000E026E000E036E53D006D0042AD89099
:100BD00003320232013200D0000E0114066E000E04
:100BE0000214076EFE0E0314086E0650071008105C
:100BF000D8B40ED0EBD70CD0042A010E0126000E7B
:100C00000222000E0322D89003320232013200D0B9
:100C1000000E0114066E000E0214076EFF0E031480
:100C2000086E065007100810D8B408D0E5D706D0D3
:100C30000406D89001360236033600D002BE04D036
:100C4000020E0460F5D700D004B002D0029E00D09E
:100C5000D8900432045003120550D8B402D0038E49
:100C600000D001C001F002C002F003C003F000D0C8
:100C70001200720ED36E000E956E800E2E6E250E33
:100C80002F6E000E306E000E316EB7EC06F0000EC7
:100C9000026E320E016EF4EC06F000D037EC07F075
:100CA000356E310E3518D8A408D08C90180E026E0F
:100CB000080E036E13EC07F013D0320E3518D8A4CB
:100CC00008D08C80100E026E080E036E13EC07F035
:100CD00007D0010E026E080E036E13EC07F000D071
:100CE000000E026E640E016EF4EC06F0D7D700EF32
:100CF00000F0000E126E8E0E116E0CAE12D00C1E95
:100D00000B1E0A1E096C000E0A220B220C22010E79
:100D1000126E07D0D8900C320B320A320932112AE7
:100D200000D0000E09140D6E000E0A140E6E000E97
:100D30000B140F6EFF0E0C14106E0D500E100F10D2
:100D40001010D8A4E7D709C001F00AC002F00BC008
:100D500003F011C004F012C005F0D6EC05F001C09C
:100D600009F002C00AF003C00BF000D01200949CFE
:100D7000948E2EC009F02FC00AF030C00BF031C0A5
:100D80000CF079EC06F009C016F00AC017F00BC0A1
:100D900018F0240E136EF40E146E470E156E65ECEB
:100DA00005F013C022F014C023F015C024F0000E8B
:100DB000256E800E266EBF0E276E10EC04F022C04A
:100DC00032F023C033F024C034F032C001F033C01D
:100DD00002F034C003F0F2EC04F00150AF6E200ECC
:100DE000AC6E900EAB6E1200000E046E000E036E21
:100DF00013D0000E066E000E056E06500AE1510E6D
:100E0000055CD8B006D001D004D0054A062AF5D733
:100E100000D0034A042A00D00350015C0450025859
:100E2000D8B0E7D712000BD002C0F6FF03C0F7FF1F
:100E30000800F55030EC07F0024A032A00D002C047
:100E4000F6FF03C0F7FF0800F5500009D8A4ECD75F
:100E50001200000EF86E080EF76E000139EF06F072
:100E6000016E00D09EA8FED701C0ADFF120000D0D9
:0A0E70009EAAFED7AE5000D012007B
:020000040020DA
:08000000FFFFFFFFFFFFFFFF00
:020000040030CA
:0E00000000091F1EFF0181FF0FC00FE00F401F
:00000001FF
